:020000020000FC
:020000001FC01F
:02000E0029C304
:100040000FE50DBF02E00EBF00E000BD03E309B9FC
:1000500006E000BD08E10AB90FEF0ABB00270BBBA1
:1000600000EF04BB0FE005BBF89402E009BF06E017
:1000700002BF43E850E060E070E004E003BF789422
:100080005F9B07C0F8940CB10030CCD2C2D27894F8
:10009000F7CF70D20CD001D0F3CF25E03FE012EFC4
:1000A0001A95F1F73A95E1F72A95D1F7089500E00E
:1000B0000FE105BB989925D0999927D09A9929D015
:1000C0009B992BD000E205BB98992AD0999928D00A
:1000D0009A9926D09B9924D000E405BB9899E5D045
:1000E0009999E3D09A99E1D09B99E0D000E805BBBB
:1000F00098991ED1999980D19A99E8D19B9911D25A
:1001000008950BB300640BBB08950BB308600BBBE1
:1001100008950BB301600BBB089500E00BBB08957D
:10012000F8949B99FDCFA0E6B0E000E10C9301E8C4
:1001300009930CE0099300E0099300E0099302E8B9
:1001400009930CE0099300E0099300E0099303E8A8
:1001500009930CE0099300E0099300E0099304E897
:1001600009930CE0099300E0099300E0099305E886
:1001700009930CE0099300E0099300E0099306E875
:1001800009930CE0099300E0099300E0099307E864
:1001900009930CE0099300E0099300E0099308E853
:1001A00009930CE0099300E0099300E0099301E052
:1001B000099302E1099300E0099300E0099302E04A
:1001C000099302E1099300E0099300E0099303E039
:1001D000099302E1099300E0099300E0099304E028
:1001E000099302E1099300E0099300E0099305E017
:1001F000099302E1099300E0099300E0099306E006
:10020000099302E1099300E0099300E0099307E0F4
:10021000099302E1099300E0099300E0099308E0E3
:10022000099302E1099300E0099300E009930FE4C8
:1002300010D20EE40ED200E20CD209E60AD20EE68B
:1002400008D200E206D201E304D202E302D20AE3BA
:1002500000D200E3FED100E3FCD100E2FAD101E6D6
:10026000F8D10EE6F6D104E6F4D100E2F2D10FE6C1
:10027000F0D106E6EED106E6ECD100E2EAD109E6DD
:10028000E8D10EE6E6D100E2E4D101E3E2D108E3F1
:10029000E0D10AE3DED100E3DCD100E3DAD10AE009
:1002A000D8D10DE0D6D1789408950895F8949B990B
:1002B000FDCF50E06EE17CE003E5CBD105E6C9D18E
:1002C00004E7C7D105E6C5D104E6C3D100E2C1D138
:1002D00004E6BFD105E6BDD106E6BBD101E6B9D142
:1002E00005E7B7D104E7B5D100E2B3D104E7B1D156
:1002F00009E6AFD10DE6ADD105E6ABD10AE3A9D150
:1003000000E2A7D101E3A5D102E3A3D10AE3A1D181
:1003100003E39FD100E39DD10AE39BD100E399D190
:1003200000E397D10AE095D10DE093D17894089538
:10033000F89400E0302E00E105BB98994AD09999D5
:1003400030D09A9916D09B9954D000E205BB989969
:1003500048D099992ED09A9914D000E405BB999968
:1003600030D09A9916D099DE032D003021F378947D
:1003700008959A99FECF01E0102A402A1BBA302E28
:1003800008959A99FECF02E0102A402A1BBA302E17
:1003900008959A99FECF04E0102A402A1BBA302E05
:1003A00008959999FECF08E0102A402A1BBA302EF2
:1003B00008959999FECF00E1102A402A1BBA302EE9
:1003C00008959999FECF00E2102A402A1BBA302ED8
:1003D00008959899FECF00E4102A402A1BBA302EC7
:1003E00008959899FECF00E8102A402A1BBA302EB3
:1003F00008950FEF302E0895F89400E0302E00E1BC
:1004000005BB989951D0999934D09A9917D09B9956
:10041000F0DF00E205BB989950D0999933D09A99B2
:1004200016D000E405BB999936D09A9919D035DEDB
:10043000032D003021F331DE789408959A99FECF90
:1004400001E0402A009510221BBA302E08959A9997
:10045000FECF02E0402A009510221BBA302E0895EC
:100460009A99FECF04E0402A009510221BBA302E44
:1004700008959999FECF08E0402A009510221BBAF2
:10048000302E08959999FECF00E1402A0095102260
:100490001BBA302E08959999FECF00E2402A0095AC
:1004A00010221BBA302E08959899FECF00E4402AFE
:1004B000009510221BBA302E08959899FECF00E8BF
:1004C000402A009510221BBA302E0895F8949A996C
:1004D000FDCF0EE4BED005E6BCD005E6BAD004E6FA
:1004E000B8D000E2B6D00EE6B4D005E6B2D007E749
:1004F000B0D000E2AED003E7ACD003E6AAD008E665
:10050000A8D005E6A6D004E6A4D005E7A2D00CE664
:10051000A0D005E69ED00AE09CD00DE09AD0789459
:100520000895F8949B99FDCF0EE493D005E691D001
:1005300005E68FD004E68DD000E28BD001E689D0AD
:1005400003E687D004E785D005E783D001E681D0B4
:100550000CE67FD000E27DD004E77BD009E679D0BD
:100560000DE677D005E675D00AE073D00DE071D0C6
:1005700078940895F894C1E6D0E010E00BB3102E03
:10058000A0E6B0E00C911017B9F1B0F5139520E09A
:10059000099107FD21E00F70302F0991071721F015
:1005A00090F4C395C39514C00991061719F070F41F
:1005B000C3950EC00991051759F010F709C0C395EE
:1005C000C395C395DDCFC395C395DACFC395D8CF77
:1005D000032F16D0892B9421903091F6213031F4DD
:1005E000032F0ED0012D092B102ECACF09D0012DBB
:1005F00090950923102EC4CF012D0BBB789408953C
:1006000091E0292E201621F0990F23942016E1F76E
:1006100008950FE41ED00BE41CD00AE01AD00DE0C0
:1006200018D00895A0E6B0E0C1E6D0E000E00C9359
:1006300014D00F3F69F0099310D009930ED009939D
:100640000CD00993A0E6B0E00C9103950C93F0CF89
:1006500008955D9BFECF0CB908955F9BFECF0CB152
:10066000089506E002BF4395403069F443E853958E
:100670005C3349F450E063956C3329F460E0739582
:08068000783109F470E01895CF
:00000001FF
