:020000020000FC
:020000001FC01F
:02000E0024C309
:100040000FE50DBF02E00EBF00E000BD03E309B9FC
:1000500006E000BD08E10AB90FEF0ABB00270BBBA1
:1000600000EF04BB0FE005BBF89402E009BF06E017
:1000700002BF43E850E060E070E004E003BF789422
:100080005F9B07C0F8940CB10030C7D2BDD2789402
:10009000F7CF6BD20CD001D0F3CF25E03FE012EFC9
:1000A0001A95F1F73A95E1F72A95D1F7089500E00E
:1000B0000FE105BB9B9913D000E205BB9B9914D0BF
:1000C00000E405BB9B99D5D000E805BB989913D1F6
:1000D000999981D19A99F5D19B991ED208959B99AE
:1000E000FECF00E0402E0895F8949B99FDCFA0E646
:1000F000B0E000E10C9301E809930CE0099300E003
:10010000099300E0099302E809930CE0099300E0E9
:10011000099300E0099303E809930CE0099300E0D8
:10012000099300E0099304E809930CE0099300E0C7
:10013000099300E0099305E809930CE0099300E0B6
:10014000099300E0099306E809930CE0099300E0A5
:10015000099300E0099307E809930CE0099300E094
:10016000099300E0099308E809930CE0099300E083
:10017000099300E0099301E0099302E1099300E08B
:10018000099300E0099302E0099302E1099300E07A
:10019000099300E0099303E0099302E1099300E069
:1001A000099300E0099304E0099302E1099300E058
:1001B000099300E0099305E0099302E1099300E047
:1001C000099300E0099306E0099302E1099300E036
:1001D000099300E0099307E0099302E1099300E025
:1001E000099300E0099308E0099302E1099300E014
:1001F000099300E009930FE427D20EE425D200E230
:1002000023D209E621D20EE61FD200E21DD201E37D
:100210001BD202E319D20AE317D200E315D200E39E
:1002200013D200E211D201E60FD20EE60DD204E69F
:100230000BD200E209D20FE607D206E605D206E6A7
:1002400003D200E201D209E6FFD10EE6FDD100E2C1
:10025000FBD101E3F9D108E3F7D10AE3F5D100E3DB
:10026000F3D100E3F1D10AE0EFD10DE0EDD17894C4
:100270000895F8949B99FDCF50E06EE17CE003E592
:10028000E3D105E6E1D104E7DFD105E6DDD104E6FF
:10029000DBD100E2D9D104E6D7D105E6D5D106E617
:1002A000D3D101E6D1D105E7CFD104E7CDD100E22A
:1002B000CBD104E7C9D109E6C7D10DE6C5D105E622
:1002C000C3D10AE3C1D100E2BFD101E3BDD102E352
:1002D000BBD10AE3B9D103E3B7D100E3B5D10AE357
:1002E000B3D100E3B1D100E3AFD10AE0ADD10DE06D
:1002F000ABD178940895F89400E0302E00E105BB6E
:1003000098994CD0999932D09A9918D09B995ED0EF
:1003100000E205BB98994AD0999930D09A9916D0A5
:1003200000E405BB98994AD0999930D09A9916D093
:10033000B4DE032D003011F3789408959A99FECF1E
:1003400001E0102A402A1BBA302E08959A99FECF58
:1003500002E0102A402A1BBA302E08959A99FECF47
:1003600004E0102A402A1BBA302E08959999FECF36
:1003700008E0102A402A1BBA302E08959999FECF22
:1003800000E1102A402A1BBA302E08959999FECF19
:1003900000E2102A402A1BBA302E08959899FECF09
:1003A00000E4102A402A1BBA302E08959899FECFF7
:1003B00000E8102A402A1BBA302E08959899FECFE3
:1003C0000FEF102A402A1BBA302E08959B99FECFBA
:1003D0000FEF302E0895F89400E0302E00E105BBB9
:1003E000989953D0999936D09A9919D09B99EEDF64
:1003F00000E205BB989952D0999935D09A9918D0B6
:1004000000E405BB989953D0999936D09A9919D0A0
:1004100044DE032D003011F340DE789408959A995C
:10042000FECF01E0402A009510221BBA302E08951D
:100430009A99FECF02E0402A009510221BBA302E76
:1004400008959A99FECF04E0402A009510221BBA25
:10045000302E08959999FECF08E0402A0095102289
:100460001BBA302E08959999FECF00E1402A0095DD
:1004700010221BBA302E08959999FECF00E2402A2F
:10048000009510221BBA302E08959899FECF00E4F3
:10049000402A009510221BBA302E08959899FECF5D
:1004A00000E8402A009510221BBA302E0895989932
:1004B000FECF0FEF402A009510221BBA01E0302E2C
:1004C0000895F8949A99FDCF0EE4BED005E6BCD00D
:1004D00005E6BAD004E6B8D000E2B6D00EE6B4D055
:1004E00005E6B2D007E7B0D000E2AED003E7ACD06B
:1004F00003E6AAD008E6A8D005E6A6D004E6A4D074
:1005000005E7A2D00CE6A0D005E69ED00AE09CD07C
:100510000DE09AD078940895F8949B99FDCF0EE45D
:1005200093D005E691D005E68FD004E68DD000E2A9
:100530008BD001E689D003E687D004E785D005E7B4
:1005400083D001E681D00CE67FD000E27DD004E7C5
:100550007BD009E679D00DE677D005E675D00AE0C4
:1005600073D00DE071D078940895F894C1E6D0E08E
:1005700010E00BB3102EA0E6B0E00C911017B9F10B
:10058000B0F5139520E0099107FD21E00F70302FA1
:100590000991071721F090F4C395C39514C00991F0
:1005A000061719F070F4C3950EC00991051759F09C
:1005B00010F709C0C395C395C395DDCFC395C39507
:1005C000DACFC395D8CF032F16D0892B9421903042
:1005D00091F6213031F4032F0ED0012D092B102E6E
:1005E000CACF09D0012D90950923102EC4CF012D1B
:1005F0000BBB7894089591E0292E201621F0990FD5
:1006000023942016E1F708950FE41ED00BE41CD0CC
:100610000AE01AD00DE018D00895A0E6B0E0C1E6D7
:10062000D0E000E00C9314D00F3F69F0099310D094
:1006300009930ED009930CD00993A0E6B0E00C9179
:1006400003950C93F0CF08955D9BFECF0CB90895F0
:100650005F9BFECF0CB1089506E002BF439540308A
:1006600069F443E853955C3349F450E063956C3387
:0E06700029F460E07395783109F470E0189574
:00000001FF
