:020000020000FC
:020000001FC01F
:02000E00BAC274
:100040000FE50DBF02E00EBF00E000BD03E309B9FC
:1000500006E000BD08E10AB90FEF0ABB00270BBBA1
:1000600000EF04BB0FE005BBF89402E009BF06E017
:1000700002BF43E850E060E070E004E003BF789422
:100080005F9B07C0F8940CB100305DD253D27894D6
:10009000F7CF04D20AD025E03FE012EF1A95F1F72E
:1000A0003A95E1F72A95D1F7EBCF00E00FE105BBD8
:1000B000989925D0999927D09A9929D09B992BD096
:1000C00000E205BB98992AD0999928D09A9926D010
:1000D0009B9924D000E405BB9899E5D09999E3D089
:1000E0009A99E1D09B99E0D000E805BB98991ED180
:1000F00099997FD19A997ED19B99A7D108950BB3F5
:1001000000640BBB08950BB308600BBB08950BB3E1
:1001100001600BBB089500E00BBB0895F8949B9918
:10012000FDCFA0E6B0E000E10C9301E809930CE0FC
:10013000099300E0099300E0099302E809930CE0B9
:10014000099300E0099300E0099303E809930CE0A8
:10015000099300E0099300E0099304E809930CE097
:10016000099300E0099300E0099305E809930CE086
:10017000099300E0099300E0099306E809930CE075
:10018000099300E0099300E0099307E809930CE064
:10019000099300E0099300E0099308E809930CE053
:1001A000099300E0099300E0099301E0099302E15B
:1001B000099300E0099300E0099302E0099302E14A
:1001C000099300E0099300E0099303E0099302E139
:1001D000099300E0099300E0099304E0099302E128
:1001E000099300E0099300E0099305E0099302E117
:1001F000099300E0099300E0099306E0099302E106
:10020000099300E0099300E0099307E0099302E1F4
:10021000099300E0099300E0099308E0099302E1E3
:10022000099300E0099300E009930FE4A3D10EE4E1
:10023000A1D100E29FD109E69DD10EE69BD100E25B
:1002400099D101E397D102E395D10AE393D100E379
:1002500091D100E38FD100E28DD101E68BD10EE682
:1002600089D104E687D100E285D10FE683D106E685
:1002700081D106E67FD100E27DD109E67BD10EE691
:1002800079D100E277D101E375D108E373D10AE3B4
:1002900071D100E36FD100E36DD10AE06BD10DE0C5
:1002A00069D1789408950895F8949B99FDCF50E012
:1002B0006EE17CE003E55ED105E65CD104E75AD14E
:1002C00005E658D104E656D100E254D104E652D1F5
:1002D00005E650D106E64ED101E64CD105E74AD1FC
:1002E00004E748D100E246D104E744D109E642D10F
:1002F0000DE640D105E63ED10AE33CD100E23AD119
:1003000001E338D102E336D10AE334D103E332D139
:1003100000E330D10AE32ED100E32CD100E32AD14F
:100320000AE028D10DE026D178940895F89400E0F1
:10033000302E00E105BB989949D099992FD09A9910
:1003400015D09B9953D000E205BB989947D0999955
:100350002DD09A9913D000E405BB99992FD09A9982
:1003600015D0032D003029F3789408959899FECF85
:1003700001E0102A402A1BBA302E08959999FECF29
:1003800002E0102A402A1BBA302E08959A99FECF17
:1003900004E0102A402A1BBA302E08959899FECF07
:1003A00008E0102A402A1BBA302E08959999FECFF2
:1003B00000E1102A402A1BBA302E08959A99FECFE8
:1003C00000E2102A402A1BBA302E08959899FECFD9
:1003D00000E4102A402A1BBA302E08959999FECFC6
:1003E00000E8102A402A1BBA302E08950FEF302E55
:1003F00008950895F8949A99FDCF0EE4BBD005E6D0
:10040000B9D005E6B7D004E6B5D000E2B3D00EE629
:10041000B1D005E6AFD007E7ADD000E2ABD003E73F
:10042000A9D003E6A7D008E6A5D005E6A3D004E648
:10043000A1D005E79FD00CE69DD005E69BD00AE051
:1004400099D00DE097D078940895F8949B99FDCFBA
:100450000EE490D005E68ED005E68CD004E68AD076
:1004600000E288D001E686D003E684D004E782D09B
:1004700005E780D001E67ED00CE67CD000E27AD0A1
:1004800004E778D009E676D00DE674D005E672D0A0
:100490000AE070D00DE06ED078940895F894C1E62B
:1004A000D0E010E00BB3102EA0E6B0E00C911017D6
:1004B000A1F198F5139520E0099107FD21E00F7057
:1004C000302F0991071721F090F4C395C39514C0FC
:1004D0000991061719F070F4C3950EC0099105171C
:1004E00059F010F709C0C395C395C395DDCFC395E7
:1004F000C395DACFC395D8CF032F13D0892B2130E2
:1005000031F4032F0ED0012D092B102ECDCF09D0A1
:10051000012D90950923102EC7CF012D0BBB789488
:10052000089591E0292E201621F0990F239420168A
:10053000E1F708950FE41ED00BE41CD00AE01AD0B6
:100540000DE018D00895A0E6B0E0C1E6D0E000E0EC
:100550000C9314D00F3F69F0099310D009930ED07B
:1005600009930CD00993A0E6B0E00C9103950C938D
:10057000F0CF08955D9BFECF0CB908955F9BFECF31
:100580000CB1089506E002BF4395403069F443E89A
:1005900053955C3349F450E063956C3329F460E083
:0A05A0007395783109F470E01895A6
:00000001FF
