:020000020000FC
:020000001FC01F
:02000E005BC0D5
:100040000FE50DBF02E00EBF00E000BD03E309B9FC
:1000500006E000BD08E10AB90FEF0ABB00270BBBA1
:10006000F89402E009BF06E002BF43E850E060E018
:1000700070E005E003BF78945F9B07C0F8940CB173
:1000800000300FD005D07894F7CF012D0BBBF4CF03
:100090000FE410D00BE40ED00AE00CD00DE00AD033
:1000A00008950CD0102E0AD0202E08D0302E06D065
:1000B000402E08955D9BFECF0CB908955F9BFECF47
:1000C0000CB10895D9CF06E002BF4395403061F4EA
:1000D00053955C3349F450E063956C3329F460E048
:0A00E0007395783109F470E018956B
:00000001FF
