:020000020000FC
:020000001FC01F
:02000E0057C2D7
:100040000FE50DBF02E00EBF00E000BD03E309B9FC
:1000500006E000BD08E10AB90FEF0ABB00270BBBA1
:1000600000EF04BB0FE005BBF89402E009BF06E017
:1000700002BF43E850E060E070E004E003BF789422
:100080005F9B07C0F8940CB10030FAD1F0D178949E
:10009000F7CFA1D10AD025E03FE012EF1A95F1F792
:1000A0003A95E1F72A95D1F7EBCF00E00FE105BBD8
:1000B000989925D0999927D09A9929D09B992BD096
:1000C00000E205BB98992AD0999928D09A9926D010
:1000D0009B9924D000E405BB9899E5D09999E3D089
:1000E0009A99E1D09B99E0D000E805BB98991ED180
:1000F00099991CD19A991BD19B9944D108950BB31E
:1001000000640BBB08950BB308600BBB08950BB3E1
:1001100001600BBB089500E00BBB0895F8949B9918
:10012000FDCFA0E6B0E000E10C9301E809930CE0FC
:10013000099300E0099300E0099302E809930CE0B9
:10014000099300E0099300E0099303E809930CE0A8
:10015000099300E0099300E0099304E809930CE097
:10016000099300E0099300E0099305E809930CE086
:10017000099300E0099300E0099306E809930CE075
:10018000099300E0099300E0099307E809930CE064
:10019000099300E0099300E0099308E809930CE053
:1001A000099300E0099300E0099301E0099302E15B
:1001B000099300E0099300E0099302E0099302E14A
:1001C000099300E0099300E0099303E0099302E139
:1001D000099300E0099300E0099304E0099302E128
:1001E000099300E0099300E0099305E0099302E117
:1001F000099300E0099300E0099306E0099302E106
:10020000099300E0099300E0099307E0099302E1F4
:10021000099300E0099300E0099308E0099302E1E3
:10022000099300E0099300E009930FE440D10EE444
:100230003ED100E23CD109E63AD10EE638D100E2E7
:1002400036D101E334D102E332D10AE330D100E305
:100250002ED100E32CD100E22AD101E628D10EE60E
:1002600026D104E624D100E222D10FE620D106E611
:100270001ED106E61CD100E21AD109E618D10EE61D
:1002800016D100E214D101E312D108E310D10AE340
:100290000ED100E30CD100E30AD10AE008D10DE051
:1002A00006D1789408950895F8949B99FDCF50E075
:1002B0006EE17CE003E5FBD005E6F9D004E7F7D07A
:1002C00005E6F5D004E6F3D000E2F1D004E6EFD085
:1002D00005E6EDD006E6EBD001E6E9D005E7E7D08C
:1002E00004E7E5D000E2E3D004E7E1D009E6DFD09F
:1002F0000DE6DDD005E6DBD00AE3D9D000E2D7D0A9
:1003000001E3D5D002E3D3D00AE3D1D003E3CFD0C9
:1003100000E3CDD00AE3CBD000E3C9D000E3C7D0DF
:100320000AE0C5D00DE0C3D0789408950895F894FC
:100330009A99FDCF0EE4BBD005E6B9D005E6B7D05B
:1003400004E6B5D000E2B3D00EE6B1D005E6AFD0FA
:1003500007E7ADD000E2ABD003E7A9D003E6A7D012
:1003600008E6A5D005E6A3D004E6A1D005E79FD016
:100370000CE69DD005E69BD00AE099D00DE097D021
:1003800078940895F8949B99FDCF0EE490D005E6FB
:100390008ED005E68CD004E68AD000E288D001E653
:1003A00086D003E684D004E782D005E780D001E65A
:1003B0007ED00CE67CD000E27AD004E778D009E663
:1003C00076D00DE674D005E672D00AE070D00DE06C
:1003D0006ED078940895F894C1E6D0E010E00BB3A5
:1003E000102EA0E6B0E00C911017A1F198F513952E
:1003F00020E0099107FD21E00F70302F09910717C8
:1004000021F090F4C395C39514C00991061719F013
:1004100070F4C3950EC00991051759F010F709C083
:10042000C395C395C395DDCFC395C395DACFC39567
:10043000D8CF032F13D0892B213031F4032F0ED0C6
:10044000012D092B102ECDCF09D0012D9095092318
:10045000102EC7CF012D0BBB7894089591E0292E63
:10046000201621F0990F23942016E1F708950FE448
:100470001ED00BE41CD00AE01AD00DE018D008956D
:10048000A0E6B0E0C1E6D0E000E00C9314D00F3F4E
:1004900069F0099310D009930ED009930CD00993F9
:1004A000A0E6B0E00C9103950C93F0CF08955D9B0E
:1004B000FECF0CB908955F9BFECF0CB1089506E006
:1004C00002BF4395403069F443E853955C3349F4E7
:1004D00050E063956C3329F460E07395783109F44A
:0404E00070E018951B
:00000001FF
