:020000020000FC
:020000001FC01F
:02000E00CDC360
:100040000FE50DBF02E00EBF00E000BD03E309B9FC
:1000500006E000BD08E10AB90FEF0ABB00270BBBA1
:100060000FEF07BB002708BB0CE101BB92989398E8
:10007000949A66D003E008BB949862D0949A60D0BA
:1000800002E008BB94985CD0949A5AD002E008BB76
:10009000949856D0949A54D008E008BB949850D0C5
:1000A000949A4ED000E008BB94984AD0949A48D0D5
:1000B00008E008BB949844D0949A42D000E008BB72
:1000C00094983ED0949A3CD001E008BB949838D0E4
:1000D000949A36D000E008BB949832D0949A30D0ED
:1000E00006E008BB94982CD0949A2AD000E008BB74
:1000F000949826D0949A24D00CE008BB949820D0F1
:10010000949A1ED000EF04BB0FE005BBF89402E008
:1001100009BF06E002BF43E850E060E070E004E0A1
:1001200003BF78945F9B07C0F8940CB100301ED3D6
:1001300014D37894F7CFC2D26FD013D001D0F2CFBE
:1001400025E03FE012EF1A95F1F73A95E1F72A958D
:10015000D1F7089522E039E03A95F1F72A95E1F7D1
:10016000089552D001E0602E3AD04ED004E1602EC6
:1001700036D000E3502E9927072F4AD0EBDF0A3004
:1001800018F093950A50FBCF950D692E28D0050DD8
:10019000602E25D039D004E1602E21D09927062F7A
:1001A00037D00A3018F093950A50FBCF950D692E81
:1001B00016D0050D602E13D027D004E1602E0FD08D
:1001C0009927052F25D00A3018F093950A50FBCFB8
:1001D000950D692E04D0050D602E01D008950F9362
:1001E0009F93962D969596959695969598BB06D045
:1001F000962D98BB03D09F910F910895ABDF9498F3
:10020000A9DF949AA7DF0895A5DF9298A3DF089548
:10021000A1DF929A9FDF089500E00FE105BB9B9953
:1002200013D000E205BB9B9914D000E405BB9B9959
:10023000D3D000E805BB98990FD199997BD19A99B1
:10024000EDD19B9914D208959B99FECF00E0402EEA
:1002500008959B99FECFA0E6B0E000E10C9301E881
:1002600009930CE0099300E0099300E0099302E888
:1002700009930CE0099300E0099300E0099303E877
:1002800009930CE0099300E0099300E0099304E866
:1002900009930CE0099300E0099300E0099305E855
:1002A00009930CE0099300E0099300E0099306E844
:1002B00009930CE0099300E0099300E0099307E833
:1002C00009930CE0099300E0099300E0099308E822
:1002D00009930CE0099300E0099300E0099301E021
:1002E000099302E1099300E0099300E0099302E019
:1002F000099302E1099300E0099300E0099303E008
:10030000099302E1099300E0099300E0099304E0F6
:10031000099302E1099300E0099300E0099305E0E5
:10032000099302E1099300E0099300E0099306E0D4
:10033000099302E1099300E0099300E0099307E0C3
:10034000099302E1099300E0099300E0099308E0B2
:10035000099302E1099300E0099300E009930FE497
:100360001CD20EE41AD200E218D209E616D20EE62A
:1003700014D200E212D201E310D202E30ED20AE359
:100380000CD200E30AD200E308D200E206D201E672
:1003900004D20EE602D204E600D200E2FED10FE65D
:1003A000FCD106E6FAD106E6F8D100E2F6D109E67C
:1003B000F4D10EE6F2D100E2F0D101E3EED108E390
:1003C000ECD10AE3EAD100E3E8D100E3E6D10AE0A8
:1003D000E4D10DE0E2D108959B99FECF50E06EE1AB
:1003E0007CE003E5DAD105E6D8D104E7D6D105E60D
:1003F000D4D104E6D2D100E2D0D104E6CED105E6D4
:10040000CCD106E6CAD101E6C8D105E7C6D104E7DA
:10041000C4D100E2C2D104E7C0D109E6BED10DE6E5
:10042000BCD105E6BAD10AE3B8D100E2B6D101E306
:10043000B4D102E3B2D10AE3B0D103E3AED100E319
:10044000ACD10AE3AAD100E3A8D100E3A6D10AE027
:10045000A4D10DE0A2D1089500E0302E00E105BB4B
:1004600098994BD0999931D09A9917D09B995DD092
:1004700000E205BB989949D099992FD09A9915D047
:1004800000E405BB989949D099992FD09A9915D035
:1004900057DE032D003011F308959A99FECF01E045
:1004A000102A402A1BBA302E08959A99FECF02E0F6
:1004B000102A402A1BBA302E08959A99FECF04E0E4
:1004C000102A402A1BBA302E08959999FECF08E0D1
:1004D000102A402A1BBA302E08959999FECF00E1C8
:1004E000102A402A1BBA302E08959999FECF00E2B7
:1004F000102A402A1BBA302E08959899FECF00E4A6
:10050000102A402A1BBA302E08959899FECF00E891
:10051000102A402A1BBA302E08959899FECF0FEF6B
:10052000102A402A1BBA302E08959B99FECF0FEF58
:10053000302E089500E0302E00E105BB989952D08E
:10054000999935D09A9918D09B99EFDF00E205BBB5
:10055000989951D0999934D09A9917D000E405BB55
:10056000989952D0999935D09A9918D0E9DD032DF0
:10057000003011F3E5DD08959A99FECF01E0402A9D
:10058000009510221BBA302E08959A99FECF02E0F2
:10059000402A009510221BBA302E08959A99FECF5A
:1005A00004E0402A009510221BBA302E0895999934
:1005B000FECF08E0402A009510221BBA302E089585
:1005C0009999FECF00E1402A009510221BBA302EE7
:1005D00008959999FECF00E2402A009510221BBA97
:1005E000302E08959899FECF00E4402A00951022FD
:1005F0001BBA302E08959899FECF00E8402A009546
:1006000010221BBA302E08959899FECF0FEF402A82
:10061000009510221BBA01E0302E08959A99FECF62
:100620000EE4BBD005E6B9D005E6B7D004E6B5D0F8
:1006300000E2B3D00EE6B1D005E6AFD007E7ADD00B
:1006400000E2ABD003E7A9D003E6A7D008E6A5D027
:1006500005E6A3D004E6A1D005E79FD00CE69DD027
:1006600005E69BD00AE099D00DE097D008959B99BC
:10067000FECF0EE492D005E690D005E68ED004E6DB
:100680008CD000E28AD001E688D003E686D004E769
:1006900084D005E782D001E680D00CE67ED000E26F
:1006A0007CD004E77AD009E678D00DE676D005E66E
:1006B00074D00AE072D00DE070D00895F894C1E6CD
:1006C000D0E010E00BB3102EA0E6B0E00C911017B4
:1006D000B9F1B0F5139520E0099107FD21E00F7005
:1006E000302F0991071721F090F4C395C39514C0DA
:1006F0000991061719F070F4C3950EC009910517FA
:1007000059F010F709C0C395C395C395DDCFC395C4
:10071000C395DACFC395D8CF032F16D0892B942158
:10072000903091F6213031F4032F0ED0012D092B9A
:10073000102ECACF09D0012D90950923102EC4CFB9
:10074000012D0BBB7894089591E0292E201621F0FD
:10075000990F23942016E1F708950FE41ED00BE4BF
:100760001CD00AE01AD00DE018D00895A0E6B0E041
:10077000C1E6D0E000E00C9314D00F3F69F009937C
:1007800010D009930ED009930CD00993A0E6B0E0E5
:100790000C9103950C93F0CF08955D9BFECF0CB99F
:1007A00008955F9BFECF0CB108950F9306E002BF42
:1007B0004395403069F443E853955C3349F450E085
:1007C00063956C3329F460E07395783109F470E037
:0407D0000F911895D8
:00000001FF
