:020000020000FC
:020000001FC01F
:02000E00B3C07D
:100040000FE50DBF02E00EBF00E000BD03E309B9FC
:1000500006E000BD08E10AB90FEF0ABB00270BBBA1
:10006000F89402E009BF06E002BF43E850E060E018
:1000700070E004E003BF78945F9B07C0F8940CB174
:1000800000305AD050D07894F7CF01D0F5CFF89403
:10009000C1E6D0E010E00BB3102EA0E6B0E00C916A
:1000A0001017A1F198F5139520E0099107FD21E0C3
:1000B0000F70302F0991071721F090F4C395C39565
:1000C00014C00991061719F070F4C3950EC0099178
:1000D000051759F010F709C0C395C395C395DDCF37
:1000E000C395C395DACFC395D8CF032F13D0892BEF
:1000F000213031F4032F0ED0012D092B102ECDCF3E
:1001000009D0012D90950923102EC7CF012D0BBBCF
:100110007894089591E0A1E0A01721F0990FA3959C
:10012000A017E1F708950FE41ED00BE41CD00AE0FD
:100130001AD00DE018D00895A0E6B0E0C1E6D0E0F6
:1001400000E00C9314D00F3F69F0099310D009938D
:100150000ED009930CD00993A0E6B0E00C91039562
:100160000C93F0CF08955D9BFECF0CB908955F9B73
:10017000FECF0CB1089506E002BF4395403069F40C
:1001800043E853955C3349F450E063956C3329F4AC
:0C01900060E07395783109F470E0189578
:00000001FF
