:020000020000FC
:020000001FC01F
:04000C0051C465C4B2
:100040000FE50DBF02E00EBF00E000BD03E309B9FC
:1000500006E000BD08E10AB90FEF0ABB00270BBBA1
:100060000FEF07BB002708BB0CE101BB92989398E8
:10007000949A75D003E008BB949871D0949A6FD08D
:1000800002E008BB94986BD0949A69D002E008BB58
:10009000949865D0949A63D008E008BB94985FD098
:1000A000949A5DD000E008BB949859D0949A57D0A8
:1000B00008E008BB949853D0949A51D000E008BB54
:1000C00094984DD0949A4BD001E008BB949847D0B7
:1000D000949A45D000E008BB949841D0949A3FD0C0
:1000E00006E008BB94983BD0949A39D000E008BB56
:1000F000949835D0949A33D00CE008BB94982FD0C4
:10010000949A2DD000EF04BB0FE005BBF89402E8F1
:1001100009BF04E602BF05E80DBD0EEE0CBD50E0C0
:1001200060E070E005E003BF04E00EBD78940000DD
:1001300000000000000000000000000000000000BF
:10014000000000005F9B07C0F8940CB1003091D311
:1001500087D37894F7CF35D330D001D0F3CF35E0C3
:100160002FE012EF1A95F1F72A95E1F73A95D1F7BA
:10017000089522E039E03A95F1F72A95E1F70895DC
:100180000F939F93962D969596959695969598BBD9
:1001900006D0962D98BB03D09F910F910895E9DF6B
:1001A0009498E7DF949AE5DF0895E3DF9298E1DF22
:1001B0000895DFDF929ADDDF089500E00FE105BBCF
:1001C0009B9913D000E205BB9B9914D000E405BBBA
:1001D0009B9945D200E805BB98990FD199997BD19D
:1001E0009A99EDD19B9914D208959B99FECF00E086
:1001F000402E08959B99FECFA0E6B0E000E10C935D
:1002000001E809930CE0099300E0099300E00993E9
:1002100002E809930CE0099300E0099300E00993D8
:1002200003E809930CE0099300E0099300E00993C7
:1002300004E809930CE0099300E0099300E00993B6
:1002400005E809930CE0099300E0099300E00993A5
:1002500006E809930CE0099300E0099300E0099394
:1002600007E809930CE0099300E0099300E0099383
:1002700008E809930CE0099300E0099300E0099372
:1002800001E0099302E1099300E0099300E009937A
:1002900002E0099302E1099300E0099300E0099369
:1002A00003E0099302E1099300E0099300E0099358
:1002B00004E0099302E1099300E0099300E0099347
:1002C00005E0099302E1099300E0099300E0099336
:1002D00006E0099302E1099300E0099300E0099325
:1002E00007E0099302E1099300E0099300E0099314
:1002F00008E0099302E1099300E0099300E0099303
:100300000FE4CED20EE4CCD200E2CAD209E6C8D2C3
:100310000EE6C6D200E2C4D201E3C2D202E3C0D2EA
:100320000AE3BED200E3BCD200E3BAD200E2B8D204
:1003300001E6B6D20EE6B4D204E6B2D200E2B0D202
:100340000FE6AED206E6ACD206E6AAD200E2A8D20A
:1003500009E6A6D20EE6A4D200E2A2D201E3A0D220
:1003600008E39ED20AE39CD200E39AD200E398D23B
:100370000AE096D20DE094D208959B99FECF50E00A
:100380006EE17CE003E58CD205E68AD204E788D2F0
:1003900005E686D204E684D200E282D204E680D268
:1003A00005E67ED206E67CD201E67AD205E778D26F
:1003B00004E776D200E274D204E772D209E670D282
:1003C0000DE66ED205E66CD20AE36AD200E268D28C
:1003D00001E366D202E364D20AE362D203E360D2AD
:1003E00000E35ED20AE35CD200E35AD200E358D2C3
:1003F0000AE056D20DE054D2089500E0302E00E11C
:1004000005BB98994BD0999931D09A9917D09B995F
:100410005DD000E205BB989949D099992FD09A995F
:1004200015D000E405BB989949D099992FD09A9995
:1004300015D095DE032D003011F308959A99FECF63
:1004400001E0102A402A1BBA302E08959A99FECF57
:1004500002E0102A402A1BBA302E08959A99FECF46
:1004600004E0102A402A1BBA302E08959999FECF35
:1004700008E0102A402A1BBA302E08959999FECF21
:1004800000E1102A402A1BBA302E08959999FECF18
:1004900000E2102A402A1BBA302E08959899FECF08
:1004A00000E4102A402A1BBA302E08959899FECFF6
:1004B00000E8102A402A1BBA302E08959899FECFE2
:1004C0000FEF102A402A1BBA302E08959B99FECFB9
:1004D0000FEF302E089500E0302E00E105BB989913
:1004E00052D0999935D09A9918D09B99EFDF00E2B4
:1004F00005BB989951D0999934D09A9917D000E4B6
:1005000005BB989952D0999935D09A9918D027DE81
:10051000032D003011F323DE08959A99FECF01E0F8
:10052000402A009510221BBA302E08959A99FECFCA
:1005300002E0402A009510221BBA302E08959A99A5
:10054000FECF04E0402A009510221BBA302E0895F9
:100550009999FECF08E0402A009510221BBA302E50
:1005600008959999FECF00E1402A009510221BBA08
:10057000302E08959999FECF00E2402A009510226E
:100580001BBA302E08959899FECF00E4402A0095BA
:1005900010221BBA302E08959899FECF00E8402A09
:1005A000009510221BBA302E08959899FECF0FEFB8
:1005B000402A009510221BBA01E0302E08959A9926
:1005C000FECF0EE46DD105E66BD105E669D104E6F8
:1005D00067D100E265D10EE663D105E661D107E798
:1005E0005FD100E25DD103E75BD103E659D108E6B4
:1005F00057D105E655D104E653D105E751D10CE6B4
:100600004FD105E64DD10AE04BD10DE049D1089517
:100610009B99FECF0EE444D105E642D105E640D1D8
:1006200004E63ED100E23CD101E63AD103E638D1FE
:1006300004E736D105E734D101E632D10CE630D1FA
:1006400000E22ED104E72CD109E62AD10DE628D10B
:1006500005E626D10AE024D10DE022D108959B9928
:10066000FECF90E000E105BB989933D0999951D025
:100670009A9965D09B9969D000E205BB98991DD0E5
:1006800099993FD09A9955D000E405BB989909D023
:1006900099992BD09A9945D062DD963018F374D091
:1006A00008959899FECF903039F0923029F0943027
:1006B00019F009E050D0939508959899FECF9030A5
:1006C00039F0923029F0943019F008E044D0939535
:1006D00008959899FECF903039F0923029F09430F7
:1006E00019F007E038D0939508959999FECF90308E
:1006F00039F0923029F0943019F006E02CD093951F
:1007000008959999FECF903019F005E024D0939583
:1007100008959999FECF903019F004E01CD093957C
:1007200008959A99FECF903019F003E014D0939574
:1007300008959A99FECF02E00ED0939508959A9964
:10074000FECF01E008D0939508959B99FECF00E07D
:1007500002D093950895903011F4702E14C091300A
:1007600011F4802E10C0923011F4902E0CC09330F2
:1007700011F4A02E08C0943011F4B02E04C09530AE
:1007800011F4C02E00C008955527662777279AE0F8
:100790000C2D500F0B2D003019F0590F0A95FCCF7E
:1007A0000A2D600F092D003019F0690F0A95FCCF52
:1007B000082D700F072D003019F0790F0A95FCCF26
:1007C0000895F894C1E6D0E010E00BB3102EA0E637
:1007D000B0E00C911017B9F1B0F5139520E0099134
:1007E00007FD21E00F70302F0991071721F090F4D9
:1007F000C395C39514C00991061719F070F4C395F9
:100800000EC00991051759F010F709C0C395C3959B
:10081000C395DDCFC395C395DACFC395D8CF032F4A
:1008200016D0892B9421903091F6213031F4032F8A
:100830000ED0012D092B102ECACF09D0012D909575
:100840000923102EC4CF012D0BBB7894089591E09D
:10085000292E201621F0990F23942016E1F70895F0
:100860000FE41ED00BE41CD00AE01AD00DE018D023
:100870000895A0E6B0E0C1E6D0E000E00C9314D00B
:100880000F3F69F0099310D009930ED009930CD053
:100890000993A0E6B0E00C9103950C93F0CF089576
:1008A0005D9BFECF0CB908955F9BFECF0CB1089500
:1008B0000F939F9305E80DBD0EEE0CBD53955C3371
:1008C00049F450E063956C3329F460E07395783116
:1008D00009F470E09F910F9118950F931F932F9338
:1008E0003F939F9362DC01E0602E4ADC5EDC04E112
:1008F000602E46DC5EDC3DDC04E5602E41DC09E474
:10090000602E3EDC0DE4602E3BDC05E4602E38DC1E
:100910000AE3602E35DC49DC04E1602E31DC00E3C3
:10092000502E9927072F45DC24DC0A3018F09395C8
:100930000A50FBCF950D692E23DC050D602E20DCBF
:100940000AE3602E1DDC9927062F0A3018F09395D4
:100950000A50FBCF950D692E13DC050D602E10DCBF
:100960000AE3602E0DDC9927052F0A3018F09395C5
:100970000A50FBCF950D692E03DC050D602E00DCBF
:1009800014DC00EC602EFCDB14DC04E4602EF8DBED
:1009900005E4602EF5DB06E5602EF2DB09E4602E4F
:1009A000EFDB03E4602EECDB05E4602EE9DB03E51E
:1009B000602EE6DB0AE3602EE3DBFBDBC89902C0B6
:1009C00000E301C001E3602EDBDBC99902C000E354
:1009D00001C001E3602ED4DBCA9902C000E301C06C
:1009E00001E3602ECDDBCB9902C000E301C001E33F
:1009F000602EC6DBCC9902C000E301C001E3602E8B
:100A0000BFDBCD9902C000E301C001E3602EB8DB7B
:100A1000CE9902C000E301C001E3602EB1DBCF99A3
:100A200002C000E301C001E3602EAADB9F913F9169
:080A30002F911F910F91189501
:00000001FF
